{
  "_format": "hh-sol-artifact-1",
  "contractName": "DelarContract",
  "sourceName": "contracts/DelarContract.sol",
  "abi": [
    {
      "inputs": [
        {
          "internalType": "address",
          "name": "_tokenAddress",
          "type": "address"
        },
        {
          "internalType": "address",
          "name": "_nftAddress",
          "type": "address"
        }
      ],
      "stateMutability": "nonpayable",
      "type": "constructor"
    },
    {
      "inputs": [],
      "name": "InsufficientDelarTokens",
      "type": "error"
    },
    {
      "inputs": [],
      "name": "InvalidLandIndex",
      "type": "error"
    },
    {
      "inputs": [],
      "name": "InvalidLandLocation",
      "type": "error"
    },
    {
      "inputs": [],
      "name": "InvalidNumberOfPlots",
      "type": "error"
    },
    {
      "inputs": [],
      "name": "InvalidTitleNumber",
      "type": "error"
    },
    {
      "inputs": [],
      "name": "LandIsAlreadyForSale",
      "type": "error"
    },
    {
      "inputs": [],
      "name": "LandIsNotValuedYet",
      "type": "error"
    },
    {
      "inputs": [],
      "name": "LandIsNotVerified",
      "type": "error"
    },
    {
      "inputs": [],
      "name": "LandIsVerifiedAlready",
      "type": "error"
    },
    {
      "inputs": [],
      "name": "NotTheOwner",
      "type": "error"
    },
    {
      "inputs": [],
      "name": "TitleExistAlready",
      "type": "error"
    },
    {
      "anonymous": false,
      "inputs": [
        {
          "indexed": false,
          "internalType": "address",
          "name": "_landOwner",
          "type": "address"
        },
        {
          "indexed": true,
          "internalType": "uint256",
          "name": "_landIndex",
          "type": "uint256"
        }
      ],
      "name": "LandDelistedForSale",
      "type": "event"
    },
    {
      "anonymous": false,
      "inputs": [
        {
          "indexed": false,
          "internalType": "address",
          "name": "_landOwner",
          "type": "address"
        },
        {
          "indexed": true,
          "internalType": "uint256",
          "name": "_landIndex",
          "type": "uint256"
        },
        {
          "indexed": true,
          "internalType": "uint256",
          "name": "_price",
          "type": "uint256"
        },
        {
          "indexed": true,
          "internalType": "uint256",
          "name": "plotsForSell",
          "type": "uint256"
        }
      ],
      "name": "LandListedForSale",
      "type": "event"
    },
    {
      "anonymous": false,
      "inputs": [
        {
          "indexed": false,
          "internalType": "address",
          "name": "_landOwner",
          "type": "address"
        },
        {
          "indexed": true,
          "internalType": "uint256",
          "name": "_landIndex",
          "type": "uint256"
        },
        {
          "indexed": true,
          "internalType": "string",
          "name": "_landLocation",
          "type": "string"
        }
      ],
      "name": "LandRegistered",
      "type": "event"
    },
    {
      "anonymous": false,
      "inputs": [
        {
          "indexed": true,
          "internalType": "address",
          "name": "_previousOwner",
          "type": "address"
        },
        {
          "indexed": true,
          "internalType": "address",
          "name": "_newOwner",
          "type": "address"
        },
        {
          "indexed": true,
          "internalType": "uint256",
          "name": "_amount",
          "type": "uint256"
        }
      ],
      "name": "LandSold",
      "type": "event"
    },
    {
      "anonymous": false,
      "inputs": [
        {
          "indexed": true,
          "internalType": "address",
          "name": "_landOwner",
          "type": "address"
        },
        {
          "indexed": true,
          "internalType": "uint256",
          "name": "_landIndex",
          "type": "uint256"
        }
      ],
      "name": "LandVerified",
      "type": "event"
    },
    {
      "inputs": [
        {
          "internalType": "uint256",
          "name": "_saleIndex",
          "type": "uint256"
        },
        {
          "internalType": "address",
          "name": "_landOwner",
          "type": "address"
        },
        {
          "internalType": "uint256",
          "name": "_numberOfPlotsToBuy",
          "type": "uint256"
        }
      ],
      "name": "buyLand",
      "outputs": [],
      "stateMutability": "nonpayable",
      "type": "function"
    },
    {
      "inputs": [
        {
          "internalType": "address",
          "name": "_landOwner",
          "type": "address"
        },
        {
          "internalType": "uint256",
          "name": "_landIndex",
          "type": "uint256"
        },
        {
          "internalType": "enum DelarContract.ElectricityIndex",
          "name": "_electricityIndex",
          "type": "uint8"
        },
        {
          "internalType": "enum DelarContract.WaterIndex",
          "name": "_waterIndex",
          "type": "uint8"
        },
        {
          "internalType": "enum DelarContract.ProximityToTarredRoad",
          "name": "_proximityIndex",
          "type": "uint8"
        },
        {
          "internalType": "enum DelarContract.LocationIndex",
          "name": "_locationIndex",
          "type": "uint8"
        }
      ],
      "name": "calculateLandNetWorth",
      "outputs": [],
      "stateMutability": "nonpayable",
      "type": "function"
    },
    {
      "inputs": [
        {
          "internalType": "address",
          "name": "_landOwner",
          "type": "address"
        },
        {
          "internalType": "uint256",
          "name": "_landIndex",
          "type": "uint256"
        }
      ],
      "name": "getLandDetails",
      "outputs": [
        {
          "components": [
            {
              "internalType": "uint256",
              "name": "numberOfPlots",
              "type": "uint256"
            },
            {
              "internalType": "string",
              "name": "landLocation",
              "type": "string"
            },
            {
              "internalType": "uint256",
              "name": "titleNumber",
              "type": "uint256"
            },
            {
              "internalType": "uint256",
              "name": "netWorth",
              "type": "uint256"
            },
            {
              "internalType": "uint256",
              "name": "plotsforSale",
              "type": "uint256"
            },
            {
              "internalType": "bool",
              "name": "isVerified",
              "type": "bool"
            },
            {
              "internalType": "bool",
              "name": "forSale",
              "type": "bool"
            }
          ],
          "internalType": "struct DelarContract.Land",
          "name": "",
          "type": "tuple"
        }
      ],
      "stateMutability": "view",
      "type": "function"
    },
    {
      "inputs": [
        {
          "internalType": "enum DelarContract.ElectricityIndex",
          "name": "_electricityIndex",
          "type": "uint8"
        },
        {
          "internalType": "enum DelarContract.WaterIndex",
          "name": "_waterIndex",
          "type": "uint8"
        },
        {
          "internalType": "enum DelarContract.ProximityToTarredRoad",
          "name": "_proximityIndex",
          "type": "uint8"
        },
        {
          "internalType": "enum DelarContract.LocationIndex",
          "name": "_locationIndex",
          "type": "uint8"
        }
      ],
      "name": "getTotalPoints",
      "outputs": [
        {
          "internalType": "uint256",
          "name": "",
          "type": "uint256"
        }
      ],
      "stateMutability": "pure",
      "type": "function"
    },
    {
      "inputs": [
        {
          "internalType": "uint256",
          "name": "",
          "type": "uint256"
        },
        {
          "internalType": "uint256",
          "name": "",
          "type": "uint256"
        }
      ],
      "name": "landHistoricalData",
      "outputs": [
        {
          "internalType": "address",
          "name": "soldFrom",
          "type": "address"
        },
        {
          "internalType": "address",
          "name": "soldTo",
          "type": "address"
        },
        {
          "internalType": "uint256",
          "name": "amount",
          "type": "uint256"
        },
        {
          "internalType": "uint256",
          "name": "numberofPlots",
          "type": "uint256"
        },
        {
          "internalType": "uint256",
          "name": "date",
          "type": "uint256"
        }
      ],
      "stateMutability": "view",
      "type": "function"
    },
    {
      "inputs": [
        {
          "internalType": "uint256",
          "name": "",
          "type": "uint256"
        }
      ],
      "name": "landsForSale",
      "outputs": [
        {
          "internalType": "address",
          "name": "owner",
          "type": "address"
        },
        {
          "internalType": "uint256",
          "name": "landIndex",
          "type": "uint256"
        }
      ],
      "stateMutability": "view",
      "type": "function"
    },
    {
      "inputs": [
        {
          "internalType": "uint256",
          "name": "_landIndex",
          "type": "uint256"
        },
        {
          "internalType": "uint256",
          "name": "_landPortion",
          "type": "uint256"
        }
      ],
      "name": "listLand",
      "outputs": [],
      "stateMutability": "nonpayable",
      "type": "function"
    },
    {
      "inputs": [
        {
          "internalType": "uint256",
          "name": "_numberOfPlots",
          "type": "uint256"
        },
        {
          "internalType": "string",
          "name": "_landLocation",
          "type": "string"
        },
        {
          "internalType": "uint256",
          "name": "_titleNumber",
          "type": "uint256"
        }
      ],
      "name": "registerLand",
      "outputs": [],
      "stateMutability": "nonpayable",
      "type": "function"
    },
    {
      "inputs": [
        {
          "internalType": "uint256",
          "name": "",
          "type": "uint256"
        }
      ],
      "name": "registeredTitles",
      "outputs": [
        {
          "internalType": "bool",
          "name": "",
          "type": "bool"
        }
      ],
      "stateMutability": "view",
      "type": "function"
    },
    {
      "inputs": [
        {
          "internalType": "uint256",
          "name": "_saleIndex",
          "type": "uint256"
        }
      ],
      "name": "removeLandFromListing",
      "outputs": [],
      "stateMutability": "nonpayable",
      "type": "function"
    },
    {
      "inputs": [],
      "name": "userRequestNetWorthValueAppreciation",
      "outputs": [],
      "stateMutability": "nonpayable",
      "type": "function"
    },
    {
      "inputs": [],
      "name": "veiwOwnerLands",
      "outputs": [
        {
          "components": [
            {
              "internalType": "uint256",
              "name": "numberOfPlots",
              "type": "uint256"
            },
            {
              "internalType": "string",
              "name": "landLocation",
              "type": "string"
            },
            {
              "internalType": "uint256",
              "name": "titleNumber",
              "type": "uint256"
            },
            {
              "internalType": "uint256",
              "name": "netWorth",
              "type": "uint256"
            },
            {
              "internalType": "uint256",
              "name": "plotsforSale",
              "type": "uint256"
            },
            {
              "internalType": "bool",
              "name": "isVerified",
              "type": "bool"
            },
            {
              "internalType": "bool",
              "name": "forSale",
              "type": "bool"
            }
          ],
          "internalType": "struct DelarContract.Land[]",
          "name": "",
          "type": "tuple[]"
        }
      ],
      "stateMutability": "view",
      "type": "function"
    },
    {
      "inputs": [
        {
          "internalType": "address",
          "name": "_landOwner",
          "type": "address"
        },
        {
          "internalType": "uint256",
          "name": "_landIndex",
          "type": "uint256"
        }
      ],
      "name": "verifyLand",
      "outputs": [],
      "stateMutability": "nonpayable",
      "type": "function"
    },
    {
      "inputs": [],
      "name": "viewAllListings",
      "outputs": [
        {
          "components": [
            {
              "internalType": "address",
              "name": "owner",
              "type": "address"
            },
            {
              "internalType": "uint256",
              "name": "landIndex",
              "type": "uint256"
            }
          ],
          "internalType": "struct DelarContract.LandSale[]",
          "name": "",
          "type": "tuple[]"
        }
      ],
      "stateMutability": "view",
      "type": "function"
    }
  ],
  "bytecode": "0x6080604052606460035534801561001557600080fd5b5060405161373638038061373683398181016040528101906100379190610163565b33600260006101000a81548173ffffffffffffffffffffffffffffffffffffffff021916908373ffffffffffffffffffffffffffffffffffffffff160217905550816000806101000a81548173ffffffffffffffffffffffffffffffffffffffff021916908373ffffffffffffffffffffffffffffffffffffffff16021790555080600160006101000a81548173ffffffffffffffffffffffffffffffffffffffff021916908373ffffffffffffffffffffffffffffffffffffffff16021790555050506101a3565b600080fd5b600073ffffffffffffffffffffffffffffffffffffffff82169050919050565b600061013082610105565b9050919050565b61014081610125565b811461014b57600080fd5b50565b60008151905061015d81610137565b92915050565b6000806040838503121561017a57610179610100565b5b60006101888582860161014e565b92505060206101998582860161014e565b9150509250929050565b613584806101b26000396000f3fe608060405234801561001057600080fd5b50600436106100ea5760003560e01c806381fab0251161008c578063ae72c32e11610066578063ae72c32e1461025d578063b1d9afa81461028e578063c843702814610298578063f35fb209146102b6576100ea565b806381fab025146102075780638fbe2f6e1461022557806398f1c34014610241576100ea565b80633b3cc352116100c85780633b3cc3521461016f5780636024eb271461019f578063644d370a146101bb578063698d4c70146101eb576100ea565b80631ae9cecc146100ef57806326454ec11461010b57806329dc08d71461013b575b600080fd5b610109600480360381019061010491906123e1565b6102d2565b005b6101256004803603810190610120919061246c565b610627565b6040516101329190612602565b60405180910390f35b61015560048036038101906101509190612624565b610791565b604051610166959493929190612682565b60405180910390f35b61018960048036038101906101849190612769565b610824565b60405161019691906127d0565b60405180910390f35b6101b960048036038101906101b491906127eb565b610b03565b005b6101d560048036038101906101d091906123e1565b610c0a565b6040516101e29190612887565b60405180910390f35b6102056004803603810190610200919061246c565b610c2a565b005b61020f611126565b60405161021c919061298f565b60405180910390f35b61023f600480360381019061023a91906129b1565b6111e5565b005b61025b60048036038101906102569190612b39565b611a10565b005b610277600480360381019061027291906123e1565b611e57565b604051610285929190612ba8565b60405180910390f35b610296611eab565b005b6102a0611ead565b6040516102ad9190612d2f565b60405180910390f35b6102d060048036038101906102cb9190612624565b612039565b005b600680549050811115610311576040517fd73260cf00000000000000000000000000000000000000000000000000000000815260040160405180910390fd5b3373ffffffffffffffffffffffffffffffffffffffff166006828154811061033c5761033b612d51565b5b906000526020600020906002020160000160009054906101000a900473ffffffffffffffffffffffffffffffffffffffff1673ffffffffffffffffffffffffffffffffffffffff16146103bb576040517f36b6b89500000000000000000000000000000000000000000000000000000000815260040160405180910390fd5b6000600682815481106103d1576103d0612d51565b5b90600052602060002090600202016001015490506000600560003373ffffffffffffffffffffffffffffffffffffffff1673ffffffffffffffffffffffffffffffffffffffff168152602001908152602001600020828154811061043857610437612d51565b5b906000526020600020906006020160050160016101000a81548160ff0219169083151502179055506000600560003373ffffffffffffffffffffffffffffffffffffffff1673ffffffffffffffffffffffffffffffffffffffff16815260200190815260200160002082815481106104b3576104b2612d51565b5b906000526020600020906006020160040181905550600660016006805490506104dc9190612daf565b815481106104ed576104ec612d51565b5b90600052602060002090600202016006838154811061050f5761050e612d51565b5b90600052602060002090600202016000820160009054906101000a900473ffffffffffffffffffffffffffffffffffffffff168160000160006101000a81548173ffffffffffffffffffffffffffffffffffffffff021916908373ffffffffffffffffffffffffffffffffffffffff1602179055506001820154816001015590505060068054806105a3576105a2612de3565b5b6001900381819060005260206000209060020201600080820160006101000a81549073ffffffffffffffffffffffffffffffffffffffff0219169055600182016000905550509055807f732ef89c8c836fba8fe3719c935d6b7e323d18943737f8b2bcc8183b726a9d513360405161061b9190612e12565b60405180910390a25050565b61062f6122f9565b600560008473ffffffffffffffffffffffffffffffffffffffff1673ffffffffffffffffffffffffffffffffffffffff16815260200190815260200160002082815481106106805761067f612d51565b5b90600052602060002090600602016040518060e0016040529081600082015481526020016001820180546106b390612e5c565b80601f01602080910402602001604051908101604052809291908181526020018280546106df90612e5c565b801561072c5780601f106107015761010080835404028352916020019161072c565b820191906000526020600020905b81548152906001019060200180831161070f57829003601f168201915b505050505081526020016002820154815260200160038201548152602001600482015481526020016005820160009054906101000a900460ff161515151581526020016005820160019054906101000a900460ff161515151581525050905092915050565b600760205281600052604060002081815481106107ad57600080fd5b9060005260206000209060050201600091509150508060000160009054906101000a900473ffffffffffffffffffffffffffffffffffffffff16908060010160009054906101000a900473ffffffffffffffffffffffffffffffffffffffff16908060020154908060030154908060040154905085565b600080600090506000600281111561083f5761083e612e8d565b5b86600281111561085257610851612e8d565b5b03610867576002816108649190612ebc565b90505b6001600281111561087b5761087a612e8d565b5b86600281111561088e5761088d612e8d565b5b036108a3576001816108a09190612ebc565b90505b6002808111156108b6576108b5612e8d565b5b8660028111156108c9576108c8612e8d565b5b036108de576000816108db9190612ebc565b90505b600060028111156108f2576108f1612e8d565b5b85600281111561090557610904612e8d565b5b0361091a576002816109179190612ebc565b90505b6001600281111561092e5761092d612e8d565b5b85600281111561094157610940612e8d565b5b03610956576001816109539190612ebc565b90505b60028081111561096957610968612e8d565b5b85600281111561097c5761097b612e8d565b5b036109915760008161098e9190612ebc565b90505b600060028111156109a5576109a4612e8d565b5b8460028111156109b8576109b7612e8d565b5b036109cd576002816109ca9190612ebc565b90505b600160028111156109e1576109e0612e8d565b5b8460028111156109f4576109f3612e8d565b5b03610a0957600181610a069190612ebc565b90505b600280811115610a1c57610a1b612e8d565b5b846002811115610a2f57610a2e612e8d565b5b03610a4457600081610a419190612ebc565b90505b60006002811115610a5857610a57612e8d565b5b836002811115610a6b57610a6a612e8d565b5b03610a8057600281610a7d9190612ebc565b90505b60016002811115610a9457610a93612e8d565b5b836002811115610aa757610aa6612e8d565b5b03610abc57600181610ab99190612ebc565b90505b600280811115610acf57610ace612e8d565b5b836002811115610ae257610ae1612e8d565b5b03610af757600081610af49190612ebc565b90505b80915050949350505050565b60003073ffffffffffffffffffffffffffffffffffffffff16633b3cc352868686866040518563ffffffff1660e01b8152600401610b449493929190613010565b602060405180830381865afa158015610b61573d6000803e3d6000fd5b505050506040513d601f19601f82011682018060405250810190610b85919061306a565b9050600081600354610b979190613097565b905080600560008a73ffffffffffffffffffffffffffffffffffffffff1673ffffffffffffffffffffffffffffffffffffffff1681526020019081526020016000208881548110610beb57610bea612d51565b5b9060005260206000209060060201600301819055505050505050505050565b60046020528060005260406000206000915054906101000a900460ff1681565b600560008373ffffffffffffffffffffffffffffffffffffffff1673ffffffffffffffffffffffffffffffffffffffff16815260200190815260200160002080549050811115610ca6576040517fd73260cf00000000000000000000000000000000000000000000000000000000815260040160405180910390fd5b600560008373ffffffffffffffffffffffffffffffffffffffff1673ffffffffffffffffffffffffffffffffffffffff1681526020019081526020016000208181548110610cf757610cf6612d51565b5b906000526020600020906006020160050160009054906101000a900460ff1615610d4d576040517f70d6891000000000000000000000000000000000000000000000000000000000815260040160405180910390fd5b6000600560008473ffffffffffffffffffffffffffffffffffffffff1673ffffffffffffffffffffffffffffffffffffffff1681526020019081526020016000208281548110610da057610d9f612d51565b5b90600052602060002090600602016003015403610de9576040517fd8389a9600000000000000000000000000000000000000000000000000000000815260040160405180910390fd5b6000600a600560008573ffffffffffffffffffffffffffffffffffffffff1673ffffffffffffffffffffffffffffffffffffffff1681526020019081526020016000208381548110610e3e57610e3d612d51565b5b906000526020600020906006020160000154610e5a9190613097565b90508060008054906101000a900473ffffffffffffffffffffffffffffffffffffffff1673ffffffffffffffffffffffffffffffffffffffff166370a08231856040518263ffffffff1660e01b8152600401610eb69190612e12565b602060405180830381865afa158015610ed3573d6000803e3d6000fd5b505050506040513d601f19601f82011682018060405250810190610ef7919061306a565b1015610f2f576040517f5a225ab300000000000000000000000000000000000000000000000000000000815260040160405180910390fd5b6001600560008573ffffffffffffffffffffffffffffffffffffffff1673ffffffffffffffffffffffffffffffffffffffff1681526020019081526020016000208381548110610f8257610f81612d51565b5b906000526020600020906006020160050160006101000a81548160ff021916908315150217905550600160009054906101000a900473ffffffffffffffffffffffffffffffffffffffff1673ffffffffffffffffffffffffffffffffffffffff1663731133e9848460016040518463ffffffff1660e01b815260040161100a93929190613155565b600060405180830381600087803b15801561102457600080fd5b505af1158015611038573d6000803e3d6000fd5b5050505060008054906101000a900473ffffffffffffffffffffffffffffffffffffffff1673ffffffffffffffffffffffffffffffffffffffff166323b872dd8430846040518463ffffffff1660e01b81526004016110999392919061319f565b6020604051808303816000875af11580156110b8573d6000803e3d6000fd5b505050506040513d601f19601f820116820180604052508101906110dc9190613202565b50818373ffffffffffffffffffffffffffffffffffffffff167ff07f92e4c0e1e5e89364a49e030a9cfb3dd0a10392ed93b3235dbeace9360b4c60405160405180910390a3505050565b60606006805480602002602001604051908101604052809291908181526020016000905b828210156111dc57838290600052602060002090600202016040518060400160405290816000820160009054906101000a900473ffffffffffffffffffffffffffffffffffffffff1673ffffffffffffffffffffffffffffffffffffffff1673ffffffffffffffffffffffffffffffffffffffff1681526020016001820154815250508152602001906001019061114a565b50505050905090565b6006805490508310611223576040517fd73260cf00000000000000000000000000000000000000000000000000000000815260040160405180910390fd5b60006006848154811061123957611238612d51565b5b90600052602060002090600202016001015490506000600560008573ffffffffffffffffffffffffffffffffffffffff1673ffffffffffffffffffffffffffffffffffffffff16815260200190815260200160002082815481106112a05761129f612d51565b5b9060005260206000209060060201905080600401548311156112ee576040517ff6dd8ba300000000000000000000000000000000000000000000000000000000815260040160405180910390fd5b828160000160008282546113029190612daf565b925050819055508281600401600082825461131d9190612daf565b9250508190555060008160050160016101000a81548160ff02191690831515021790555060008382600301546113539190613097565b90508060008054906101000a900473ffffffffffffffffffffffffffffffffffffffff1673ffffffffffffffffffffffffffffffffffffffff166370a08231336040518263ffffffff1660e01b81526004016113af9190612e12565b602060405180830381865afa1580156113cc573d6000803e3d6000fd5b505050506040513d601f19601f820116820180604052508101906113f0919061306a565b1015611428576040517f5a225ab300000000000000000000000000000000000000000000000000000000815260040160405180910390fd5b60006040518060e0016040528086815260200184600101805461144a90612e5c565b80601f016020809104026020016040519081016040528092919081815260200182805461147690612e5c565b80156114c35780601f10611498576101008083540402835291602001916114c3565b820191906000526020600020905b8154815290600101906020018083116114a657829003601f168201915b505050505081526020018460020154815260200184600301548152602001846004015481526020018460050160009054906101000a900460ff1615158152602001600015158152509050600560003373ffffffffffffffffffffffffffffffffffffffff1673ffffffffffffffffffffffffffffffffffffffff16815260200190815260200160002081908060018154018082558091505060019003906000526020600020906006020160009091909190915060008201518160000155602082015181600101908161159591906133d1565b5060408201518160020155606082015181600301556080820151816004015560a08201518160050160006101000a81548160ff02191690831515021790555060c08201518160050160016101000a81548160ff0219169083151502179055505050600083600001540361187857600160009054906101000a900473ffffffffffffffffffffffffffffffffffffffff1673ffffffffffffffffffffffffffffffffffffffff1663f242432a87338760016040518563ffffffff1660e01b815260040161166494939291906134a3565b600060405180830381600087803b15801561167e57600080fd5b505af1158015611692573d6000803e3d6000fd5b50505050600560008773ffffffffffffffffffffffffffffffffffffffff1673ffffffffffffffffffffffffffffffffffffffff16815260200190815260200160002084815481106116e7576116e6612d51565b5b906000526020600020906006020160008082016000905560018201600061170e919061233a565b6002820160009055600382016000905560048201600090556005820160006101000a81549060ff02191690556005820160016101000a81549060ff02191690555050600660016006805490506117649190612daf565b8154811061177557611774612d51565b5b90600052602060002090600202016006888154811061179757611796612d51565b5b90600052602060002090600202016000820160009054906101000a900473ffffffffffffffffffffffffffffffffffffffff168160000160006101000a81548173ffffffffffffffffffffffffffffffffffffffff021916908373ffffffffffffffffffffffffffffffffffffffff16021790555060018201548160010155905050600680548061182b5761182a612de3565b5b6001900381819060005260206000209060020201600080820160006101000a81549073ffffffffffffffffffffffffffffffffffffffff021916905560018201600090555050905561190b565b600160009054906101000a900473ffffffffffffffffffffffffffffffffffffffff1673ffffffffffffffffffffffffffffffffffffffff1663731133e9878660016040518463ffffffff1660e01b81526004016118d893929190613155565b600060405180830381600087803b1580156118f257600080fd5b505af1158015611906573d6000803e3d6000fd5b505050505b60008054906101000a900473ffffffffffffffffffffffffffffffffffffffff1673ffffffffffffffffffffffffffffffffffffffff166323b872dd3388856040518463ffffffff1660e01b81526004016119689392919061319f565b6020604051808303816000875af1158015611987573d6000803e3d6000fd5b505050506040513d601f19601f820116820180604052508101906119ab9190613202565b50813373ffffffffffffffffffffffffffffffffffffffff168773ffffffffffffffffffffffffffffffffffffffff167f95d4b69de758974d8962534750a9be6a65fd20520c7c32d18e329f96e3a924f460405160405180910390a450505050505050565b60008303611a4a576040517ff6dd8ba300000000000000000000000000000000000000000000000000000000815260040160405180910390fd5b60008103611a84576040517fd90b981700000000000000000000000000000000000000000000000000000000815260040160405180910390fd5b6000825103611abf576040517ffe9cfd1300000000000000000000000000000000000000000000000000000000815260040160405180910390fd5b6004600082815260200190815260200160002060009054906101000a900460ff1615611b17576040517f6aa64f1a00000000000000000000000000000000000000000000000000000000815260040160405180910390fd5b60016004600083815260200190815260200160002060006101000a81548160ff02191690831515021790555060006040518060e00160405280858152602001848152602001838152602001600081526020016000815260200160001515815260200160001515815250905060006040518060a001604052803373ffffffffffffffffffffffffffffffffffffffff1681526020013373ffffffffffffffffffffffffffffffffffffffff16815260200160008152602001868152602001428152509050600560003373ffffffffffffffffffffffffffffffffffffffff1673ffffffffffffffffffffffffffffffffffffffff168152602001908152602001600020829080600181540180825580915050600190039060005260206000209060060201600090919091909150600082015181600001556020820151816001019081611c6291906133d1565b5060408201518160020155606082015181600301556080820151816004015560a08201518160050160006101000a81548160ff02191690831515021790555060c08201518160050160016101000a81548160ff021916908315150217905550505060006001600560003373ffffffffffffffffffffffffffffffffffffffff1673ffffffffffffffffffffffffffffffffffffffff16815260200190815260200160002080549050611d149190612daf565b90506007600082815260200190815260200160002082908060018154018082558091505060019003906000526020600020906005020160009091909190915060008201518160000160006101000a81548173ffffffffffffffffffffffffffffffffffffffff021916908373ffffffffffffffffffffffffffffffffffffffff16021790555060208201518160010160006101000a81548173ffffffffffffffffffffffffffffffffffffffff021916908373ffffffffffffffffffffffffffffffffffffffff160217905550604082015181600201556060820151816003015560808201518160040155505084604051611e0f9190613537565b6040518091039020817ff69e54d3de96c675cf5ad32aea2a4c533473ff02e1b6adf4befb1289d562764833604051611e479190612e12565b60405180910390a3505050505050565b60068181548110611e6757600080fd5b90600052602060002090600202016000915090508060000160009054906101000a900473ffffffffffffffffffffffffffffffffffffffff16908060010154905082565b565b6060600560003373ffffffffffffffffffffffffffffffffffffffff1673ffffffffffffffffffffffffffffffffffffffff168152602001908152602001600020805480602002602001604051908101604052809291908181526020016000905b8282101561203057838290600052602060002090600602016040518060e001604052908160008201548152602001600182018054611f4b90612e5c565b80601f0160208091040260200160405190810160405280929190818152602001828054611f7790612e5c565b8015611fc45780601f10611f9957610100808354040283529160200191611fc4565b820191906000526020600020905b815481529060010190602001808311611fa757829003601f168201915b505050505081526020016002820154815260200160038201548152602001600482015481526020016005820160009054906101000a900460ff161515151581526020016005820160019054906101000a900460ff16151515158152505081526020019060010190611f0e565b50505050905090565b600560003373ffffffffffffffffffffffffffffffffffffffff1673ffffffffffffffffffffffffffffffffffffffff168152602001908152602001600020805490508211156120b5576040517fd73260cf00000000000000000000000000000000000000000000000000000000815260040160405180910390fd5b6000600560003373ffffffffffffffffffffffffffffffffffffffff1673ffffffffffffffffffffffffffffffffffffffff168152602001908152602001600020838154811061210857612107612d51565b5b906000526020600020906006020190508060050160009054906101000a900460ff16612160576040517fb2d6193400000000000000000000000000000000000000000000000000000000815260040160405180910390fd5b8060050160019054906101000a900460ff16156121a9576040517f9d31426600000000000000000000000000000000000000000000000000000000815260040160405180910390fd5b80600001548211156121e7576040517ff6dd8ba300000000000000000000000000000000000000000000000000000000815260040160405180910390fd5b60018160050160016101000a81548160ff021916908315150217905550818160040181905550600660405180604001604052803373ffffffffffffffffffffffffffffffffffffffff16815260200185815250908060018154018082558091505060019003906000526020600020906002020160009091909190915060008201518160000160006101000a81548173ffffffffffffffffffffffffffffffffffffffff021916908373ffffffffffffffffffffffffffffffffffffffff160217905550602082015181600101555050818160030154847fa09a137090f8c2a90d29f465a7e8b3efdec4551edbaecaaf62817ab9338dd532336040516122ec9190612e12565b60405180910390a4505050565b6040518060e0016040528060008152602001606081526020016000815260200160008152602001600081526020016000151581526020016000151581525090565b50805461234690612e5c565b6000825580601f106123585750612377565b601f016020900490600052602060002090810190612376919061237a565b5b50565b5b8082111561239357600081600090555060010161237b565b5090565b6000604051905090565b600080fd5b600080fd5b6000819050919050565b6123be816123ab565b81146123c957600080fd5b50565b6000813590506123db816123b5565b92915050565b6000602082840312156123f7576123f66123a1565b5b6000612405848285016123cc565b91505092915050565b600073ffffffffffffffffffffffffffffffffffffffff82169050919050565b60006124398261240e565b9050919050565b6124498161242e565b811461245457600080fd5b50565b60008135905061246681612440565b92915050565b60008060408385031215612483576124826123a1565b5b600061249185828601612457565b92505060206124a2858286016123cc565b9150509250929050565b6124b5816123ab565b82525050565b600081519050919050565b600082825260208201905092915050565b60005b838110156124f55780820151818401526020810190506124da565b60008484015250505050565b6000601f19601f8301169050919050565b600061251d826124bb565b61252781856124c6565b93506125378185602086016124d7565b61254081612501565b840191505092915050565b60008115159050919050565b6125608161254b565b82525050565b600060e08301600083015161257e60008601826124ac565b50602083015184820360208601526125968282612512565b91505060408301516125ab60408601826124ac565b5060608301516125be60608601826124ac565b5060808301516125d160808601826124ac565b5060a08301516125e460a0860182612557565b5060c08301516125f760c0860182612557565b508091505092915050565b6000602082019050818103600083015261261c8184612566565b905092915050565b6000806040838503121561263b5761263a6123a1565b5b6000612649858286016123cc565b925050602061265a858286016123cc565b9150509250929050565b61266d8161242e565b82525050565b61267c816123ab565b82525050565b600060a0820190506126976000830188612664565b6126a46020830187612664565b6126b16040830186612673565b6126be6060830185612673565b6126cb6080830184612673565b9695505050505050565b600381106126e257600080fd5b50565b6000813590506126f4816126d5565b92915050565b6003811061270757600080fd5b50565b600081359050612719816126fa565b92915050565b6003811061272c57600080fd5b50565b60008135905061273e8161271f565b92915050565b6003811061275157600080fd5b50565b60008135905061276381612744565b92915050565b60008060008060808587031215612783576127826123a1565b5b6000612791878288016126e5565b94505060206127a28782880161270a565b93505060406127b38782880161272f565b92505060606127c487828801612754565b91505092959194509250565b60006020820190506127e56000830184612673565b92915050565b60008060008060008060c08789031215612808576128076123a1565b5b600061281689828a01612457565b965050602061282789828a016123cc565b955050604061283889828a016126e5565b945050606061284989828a0161270a565b935050608061285a89828a0161272f565b92505060a061286b89828a01612754565b9150509295509295509295565b6128818161254b565b82525050565b600060208201905061289c6000830184612878565b92915050565b600081519050919050565b600082825260208201905092915050565b6000819050602082019050919050565b6128d78161242e565b82525050565b6040820160008201516128f360008501826128ce565b50602082015161290660208501826124ac565b50505050565b600061291883836128dd565b60408301905092915050565b6000602082019050919050565b600061293c826128a2565b61294681856128ad565b9350612951836128be565b8060005b83811015612982578151612969888261290c565b975061297483612924565b925050600181019050612955565b5085935050505092915050565b600060208201905081810360008301526129a98184612931565b905092915050565b6000806000606084860312156129ca576129c96123a1565b5b60006129d8868287016123cc565b93505060206129e986828701612457565b92505060406129fa868287016123cc565b9150509250925092565b600080fd5b600080fd5b7f4e487b7100000000000000000000000000000000000000000000000000000000600052604160045260246000fd5b612a4682612501565b810181811067ffffffffffffffff82111715612a6557612a64612a0e565b5b80604052505050565b6000612a78612397565b9050612a848282612a3d565b919050565b600067ffffffffffffffff821115612aa457612aa3612a0e565b5b612aad82612501565b9050602081019050919050565b82818337600083830152505050565b6000612adc612ad784612a89565b612a6e565b905082815260208101848484011115612af857612af7612a09565b5b612b03848285612aba565b509392505050565b600082601f830112612b2057612b1f612a04565b5b8135612b30848260208601612ac9565b91505092915050565b600080600060608486031215612b5257612b516123a1565b5b6000612b60868287016123cc565b935050602084013567ffffffffffffffff811115612b8157612b806123a6565b5b612b8d86828701612b0b565b9250506040612b9e868287016123cc565b9150509250925092565b6000604082019050612bbd6000830185612664565b612bca6020830184612673565b9392505050565b600081519050919050565b600082825260208201905092915050565b6000819050602082019050919050565b600060e083016000830151612c1560008601826124ac565b5060208301518482036020860152612c2d8282612512565b9150506040830151612c4260408601826124ac565b506060830151612c5560608601826124ac565b506080830151612c6860808601826124ac565b5060a0830151612c7b60a0860182612557565b5060c0830151612c8e60c0860182612557565b508091505092915050565b6000612ca58383612bfd565b905092915050565b6000602082019050919050565b6000612cc582612bd1565b612ccf8185612bdc565b935083602082028501612ce185612bed565b8060005b85811015612d1d5784840389528151612cfe8582612c99565b9450612d0983612cad565b925060208a01995050600181019050612ce5565b50829750879550505050505092915050565b60006020820190508181036000830152612d498184612cba565b905092915050565b7f4e487b7100000000000000000000000000000000000000000000000000000000600052603260045260246000fd5b7f4e487b7100000000000000000000000000000000000000000000000000000000600052601160045260246000fd5b6000612dba826123ab565b9150612dc5836123ab565b9250828203905081811115612ddd57612ddc612d80565b5b92915050565b7f4e487b7100000000000000000000000000000000000000000000000000000000600052603160045260246000fd5b6000602082019050612e276000830184612664565b92915050565b7f4e487b7100000000000000000000000000000000000000000000000000000000600052602260045260246000fd5b60006002820490506001821680612e7457607f821691505b602082108103612e8757612e86612e2d565b5b50919050565b7f4e487b7100000000000000000000000000000000000000000000000000000000600052602160045260246000fd5b6000612ec7826123ab565b9150612ed2836123ab565b9250828201905080821115612eea57612ee9612d80565b5b92915050565b60038110612f0157612f00612e8d565b5b50565b6000819050612f1282612ef0565b919050565b6000612f2282612f04565b9050919050565b612f3281612f17565b82525050565b60038110612f4957612f48612e8d565b5b50565b6000819050612f5a82612f38565b919050565b6000612f6a82612f4c565b9050919050565b612f7a81612f5f565b82525050565b60038110612f9157612f90612e8d565b5b50565b6000819050612fa282612f80565b919050565b6000612fb282612f94565b9050919050565b612fc281612fa7565b82525050565b60038110612fd957612fd8612e8d565b5b50565b6000819050612fea82612fc8565b919050565b6000612ffa82612fdc565b9050919050565b61300a81612fef565b82525050565b60006080820190506130256000830187612f29565b6130326020830186612f71565b61303f6040830185612fb9565b61304c6060830184613001565b95945050505050565b600081519050613064816123b5565b92915050565b6000602082840312156130805761307f6123a1565b5b600061308e84828501613055565b91505092915050565b60006130a2826123ab565b91506130ad836123ab565b92508282026130bb816123ab565b915082820484148315176130d2576130d1612d80565b5b5092915050565b6000819050919050565b6000819050919050565b60006131086131036130fe846130d9565b6130e3565b6123ab565b9050919050565b613118816130ed565b82525050565b600082825260208201905092915050565b50565b600061313f60008361311e565b915061314a8261312f565b600082019050919050565b600060808201905061316a6000830186612664565b6131776020830185612673565b613184604083018461310f565b818103606083015261319581613132565b9050949350505050565b60006060820190506131b46000830186612664565b6131c16020830185612664565b6131ce6040830184612673565b949350505050565b6131df8161254b565b81146131ea57600080fd5b50565b6000815190506131fc816131d6565b92915050565b600060208284031215613218576132176123a1565b5b6000613226848285016131ed565b91505092915050565b60008190508160005260206000209050919050565b60006020601f8301049050919050565b600082821b905092915050565b6000600883026132917fffffffffffffffffffffffffffffffffffffffffffffffffffffffffffffffff82613254565b61329b8683613254565b95508019841693508086168417925050509392505050565b60006132ce6132c96132c4846123ab565b6130e3565b6123ab565b9050919050565b6000819050919050565b6132e8836132b3565b6132fc6132f4826132d5565b848454613261565b825550505050565b600090565b613311613304565b61331c8184846132df565b505050565b5b8181101561334057613335600082613309565b600181019050613322565b5050565b601f821115613385576133568161322f565b61335f84613244565b8101602085101561336e578190505b61338261337a85613244565b830182613321565b50505b505050565b600082821c905092915050565b60006133a86000198460080261338a565b1980831691505092915050565b60006133c18383613397565b9150826002028217905092915050565b6133da826124bb565b67ffffffffffffffff8111156133f3576133f2612a0e565b5b6133fd8254612e5c565b613408828285613344565b600060209050601f83116001811461343b5760008415613429578287015190505b61343385826133b5565b86555061349b565b601f1984166134498661322f565b60005b828110156134715784890151825560018201915060208501945060208101905061344c565b8683101561348e578489015161348a601f891682613397565b8355505b6001600288020188555050505b505050505050565b600060a0820190506134b86000830187612664565b6134c56020830186612664565b6134d26040830185612673565b6134df606083018461310f565b81810360808301526134f081613132565b905095945050505050565b600081905092915050565b6000613511826124bb565b61351b81856134fb565b935061352b8185602086016124d7565b80840191505092915050565b60006135438284613506565b91508190509291505056fea2646970667358221220b7a051bce7473a3f829b05efb0212e2f7e4fec71d554da16acee53d2e871695564736f6c634300081c0033",
  "linkReferences": {},
  "deployedLinkReferences": {}
}